:020000040800F2
:10000000E80F0020E1010008BD2800083F0C0008AF
:10001000B9280008090B0008D32E000800000000D2
:10002000000000000000000000000000490100087E
:100030000D0B0008000000008D010008812B000856
:10004000FB010008FB010008FB010008FB010008A0
:10005000FB010008FB010008FB010008FB01000890
:10006000FB010008FB010008FB010008FB01000880
:10007000FB010008FB010008FB010008FB01000870
:10008000FB010008FB010008FB010008FB01000860
:10009000FB010008FB010008FB010008FB01000850
:1000A000FB010008FB010008FB010008FB01000840
:1000B000FB010008FB010008FB010008FB01000830
:1000C000FB010008FB010008FB010008FB01000820
:1000D000FB010008B12C0008FB010008FB0100082F
:1000E000FB010008FB010008FB010008FB01000800
:1000F000FB010008FB010008FB010008FB010008F0
:10010000FB010008FB010008FB010008FB010008DF
:10011000FB010008FB010008FB010008FB010008CF
:10012000FB010008FB010008FB010008FB010008BF
:10013000DFF810D000F0C6FC00480047793F000807
:10014000AFF30080E80F0020224B19680868B0E880
:10015000F00F80F30988BFF36F8F4FF0000080F33A
:1001600011884EF00D0E7047000000000648006830
:10017000006880F3088862B661B6BFF34F8FBFF3A3
:100180006F8F00DF00BF00BF08ED00E0EFF30980D4
:10019000BFF36F8F0F4B1A6820E9F00F106008B59E
:1001A0004FF0500080F31188BFF34F8FBFF36F8F74
:1001B00004F0AAF84FF0000080F31188BDE8084071
:1001C00019680868B0E8F00F80F30988BFF36F8FF3
:1001D000704700BF28000020EFF305807047000043
:1001E0000648804706480047FEE7FEE7FEE7FEE7D1
:1001F000FEE7FEE7FEE7FEE7FEE7FEE7912B0008DD
:100200003101000840EA01039B0703D009E008C957
:10021000121F08C0042AFAD203E011F8013B00F8CB
:10022000013B521EF9D27047F0B480EA0102D40FAC
:100230004200B2EB410F02D20246084611464A0084
:1002400042D0C30DDDB2C1F3C752AD1A202D35DA4D
:10025000C1F3160141F4000204B15242C5F1200677
:1002600002FA06F12A411044B3EBD05F23D0C4B1A7
:10027000012DA0EBC35009DCF0BC4FF0004202EAB4
:10028000C352DBB200F5000000F0F9BA400000F103
:10029000807000EBC350A0F1807040EAD17049003B
:1002A00009E0490841EAC071A0EBC35000F5000025
:1002B000400800EBC350F0BC00F0D8BA6142012204
:1002C00002EB4101001BF6E7F0BC704781F00041F2
:1002D000AAE780F00040A7E780EA010210B502F02B
:1002E0000043400022D04A001FD0010E01EB1261F2
:1002F000C0F35600C2F3560240F4000042F400027C
:10030000A0FB022000047F39140400D0401C50EAF6
:10031000124001D44000491EC2B20C0604EBD010BA
:10032000401C4008802A02D003E0002010BD20F0CD
:100330000100002900DA0020184310BD30B480EA23
:10034000010202F0004530F0004221F0004013D0DD
:1003500090B1C30DD40DC2F31601C0F31600E41A18
:1003600041F4000140F400027D34914201D3641C49
:1003700000E04900002C02DA30BC002070474FF446
:1003800000000023914201D3891A034340084FEA39
:100390004101F7D151B1914202D14FF0004105E046
:1003A00002D24FF0010101E06FF0010103EBC450F4
:1003B000284430BC00F05ABA2DE9FE4F804681EA4D
:1003C0000300C00F0C46009021F0004123F00045CF
:1003D000B8EB0200A94105D24046214690461C4692
:1003E0000B46024623F00040104347D0270DC7F3C9
:1003F0000A00C3F30A510290401A019040286BDAB8
:10040000C3F3130040F4801B0098924620B10023F0
:10041000D2EB030A63EB0B0B01985946C0F1400283
:10042000504600F002FA06460D4650465946019ADB
:1004300000F00AFA10EB08006141002487EA11522B
:1004400084EAE7731A4340D0009A62B3019A012A02
:100450004FEA075215DC001B61EB02014FF000422E
:1004600002EA0752CDE90042001C41F580113246F4
:100470002B4600F041FA03B0BDE8F08F404621461C
:10048000F9E7001B61EB0201001C41F58013001825
:100490005B412018A2F5001747EB030140EAD57035
:1004A000B6196D4111E06D084FEA360645EAC07590
:1004B0004FEA0752001B61EB0201001C41F580115D
:1004C00049084FEA30000019514132462B4603B02B
:1004D000BDE8F04F00F001BA00980122400000236F
:1004E000D0EB020263EBE073009821464FEAE07420
:1004F000B8EB000061EB0401E9E783F000435BE740
:1005000081F0004158E72DE9FE4F81EA030404F031
:10051000004421F0004100944FF0000B23F0004311
:1005200050EA01045ED052EA03045BD0C3F30A54DC
:10053000C1F30A552C44A4F2F3340194A0FB0254F5
:10054000C1F3130141F48011C3F3130343F4801387
:1005500001FB024400FB034E840A970A44EA8154DB
:1005600047EA8357A4FB076802958D0A05FB0785B8
:100570004FEA932C04FB0C542705029D4FEA0658C2
:1005800047EA1637B5EB08056EEB070C870E920E9F
:1005900047EA811742EA8312A7FB0201B6EB0B017F
:1005A00064EB00042B0D43EA0C335E1844EB1C5043
:1005B000DA465146E7FB0201C5F313044FEA0B3359
:1005C00043EA14534FEA0432019C43EA0603A4F1C0
:1005D0000C040294009CCDE900B400F08DF903B046
:1005E000BDE8F08F00200146F9E72DE9F04D81EAE2
:1005F000030404F0004B21F0004514464FF0000ABC
:1006000023F0004150EA050220D054EA01021DD037
:10061000C5F30A570246C5F31303C1F31300C1F330
:100620000A5640F4801543F48013A7EB0608101B0C
:10063000D64608F2FD3873EB050002D308F1010835
:1006400001E092185B41B8F1000F03DA0020014687
:10065000BDE8F08D00204FF48011064684460EE080
:10066000171B73EB050705D3121B63EB050306434A
:100670004CEA010C49084FEA300092185B4150EAFD
:100680000107EDD152EA030012D082EA040083EAA6
:100690000501084305D0101BAB4106D201220023FF
:1006A00006E000224FF0004302E06FF00102531019
:1006B0001AEB06004CEB085110EB0A0041EB0B0162
:1006C000BDE8F04D00F009B9C10F80EAE0700844C0
:1006D000CA079623002100F0D2B8962300221146C3
:1006E00000F0CDB800F0004230F000400AD0C10D5B
:1006F00001F56071C0F3160042EA0151C2084007DB
:1007000011437047002001467047000030B5041EB9
:1007100071F1000404DB4FF00044404264EB01013E
:10072000141E73F1000405DB1C464FF000435242D7
:1007300063EB04038B4208BF824230BD01F00043EB
:1007400030B421F0004150EA010206D00A0DA2F5B2
:100750006072C1F31301002A02DC30BC0020704734
:10076000440F44EAC104C100E01830BC00EBC250A1
:1007700000F07CB8002801DBC0F10040002901DB5B
:10078000C1F1004181427047002801DBC0F1004007
:10079000002901DBC1F100418842704730B50B46AA
:1007A000014600202022012409E021FA02F59D42A1
:1007B00005D303FA02F5491B04FA02F52844151E75
:1007C000A2F10102F1DC30BD2DE9F05F0546002009
:1007D00092469B4688460646814640241BE02846B2
:1007E00041464746224600F07FF953465A46C01A12
:1007F000914110D311461846224600F016F82D1AE2
:1008000067EB01084F4622460120002100F00DF859
:1008100017EB00094E41201EA4F10104DFDC48461D
:1008200031462A464346BDE8F09F202A04DB203AA1
:1008300000FA02F1002070479140C2F1200320FA33
:1008400003F3194390407047202A06DBCB17203A68
:1008500041FA02F043EAE07306E041FA02F3D040C5
:10086000C2F1200291400843194670470029A8BFF1
:100870007047401C490008BF20F00100704710B4C9
:10088000B0FA80FC00FA0CF050EA010404BF10BC7E
:10089000704749B1CCF1200421FA04F411FA0CF1AB
:1008A00018BF012121430843A3EB0C01CB1D4FEAE4
:1008B00000614FEA102042BF002010BC704700EBDF
:1008C000C35010440029A4BF10BC7047401C49000D
:1008D00008BF20F0010010BC704710B5141E73F162
:1008E000000408DA401C41F1000192185B411A43F0
:1008F00001D120F0010010BD2DE9F04D92469B463C
:1009000011B1B1FA81F202E0B0FA80F220329046E1
:10091000FFF78BFF04460F4640EA0A0041EA0B014D
:1009200053465A46084313D0114653EA010019D0E2
:10093000C8F14002504600F0D7F805460E46504632
:1009400059464246FFF771FF084305D0012004E0F5
:1009500020463946BDE8F08D0020054346EAE076A2
:100960002C4337430A986305E40AA0EB08000022F1
:10097000FD0A44EA47540A3002D500200146E9E75F
:10098000010510196941DDE9084500196941BDE813
:10099000F04DA2E770B521F0004303430CD0C1F342
:1009A0000A550024D5EB040564EB0403D617AD1AF1
:1009B000B34102DB0020014670BD201841EB02511B
:1009C00070BD2DE9F04D00231A461B1A8A4103DB46
:1009D00000200146BDE8F08DC1F30A52C1F31301B6
:1009E00041F480154FF0000BD10702D100186D4182
:1009F000521E0027044640F2FF11384601EB620AFE
:100A00003E468046024600204FF4801100F06CF80C
:100A1000C2197141BB1846EB0100B4EB030C75EB36
:100A2000000C04D3E41A65EB000517460E462419A2
:100A300008F101006D4180463428E3DDF91946EBE9
:100A40000600091BA84103D24FF0FF32134601E014
:100A5000002213461BEB070046EB0A51BDE8F04DA0
:100A6000FFF73BBFC1F30A52C1F3130140F2FF335A
:100A700041F480119A4202DA00200146704740F2A8
:100A800033439A42A2F2334202DC524200F02CB8C5
:100A9000FFF7CBBE30B5041E71F1000404DB4FF04C
:100AA0000044404264EB0101141E73F1000405DBB5
:100AB0001C464FF00043524263EB0403994208BFC7
:100AC000904230BD064C074D06E0E06840F001035F
:100AD00094E8070098471034AC42F6D3FFF72CFB9C
:100AE000F047000810480008202A04DB203A21FAC9
:100AF00002F00021704721FA02F3D040C2F1200237
:100B0000914008431946704700BFFEE770472DE942
:100B1000F041024600250026002000230024002783
:100B200091F803C00CF00F0591F803C00CF0100C05
:100B3000BCF1000F03D091F802C04CEA050591F812
:100B400000C0BCF1000F31D0146800202BE04FF042
:100B5000010C0CFA00F3B1F800C00CEA03069E4247
:100B600020D183004FF00F0C0CFA03F7BC4305FAB9
:100B700003FC4CEA040491F803C0BCF1280F06D131
:100B80004FF0010C0CFA00FCC2F814C00AE091F816
:100B900003C0BCF1480F05D14FF0010C0CFA00FC6A
:100BA000C2F810C0401C0828D1D31460B1F800C0AE
:100BB000BCF1FF0F34DD546800202EE000F1080C7A
:100BC0004FF0010808FA0CF3B1F800C00CEA030674
:100BD0009E4221D183004FF00F0C0CFA03F7BC4367
:100BE00005FA03FC4CEA040491F803C0BCF1280F99
:100BF00005D100F1080C08FA0CF8C2F8148091F83D
:100C000003C0BCF1480F07D100F1080C4FF00108F8
:100C100008FA0CF8C2F81080401C0828CED35460A3
:100C2000BDE8F0810246002093680B400BB1012023
:100C300000E000207047416170470161704700BFCC
:100C4000FEE710B5002000F085F800F0C3F80020A2
:100C500000F0AEF8002000F00AF8012000F07AF869
:100C6000002000F004F8002000F074F810BD00210E
:100C700000E0491C8142FCD37047000008B5012107
:100C8000082001F065FE0121082001F061FE10201E
:100C90008DF803008001ADF8000002208DF80200FD
:100CA00069460D48FFF733FF10208DF80300C0019F
:100CB000ADF8000002208DF8020069460648FFF7F3
:100CC00026FF4FF480610448FFF7B7FF4FF400613F
:100CD0000148FFF7B2FF08BD000C014010B500202D
:100CE00000F038F800F076F8012000F061F80020FC
:100CF000FFF7BDFF012000F02DF80020FFF7B7FF40
:100D0000002000F027F810BD70B50546002400F063
:100D10003DF8002614E0002000F01CF80020FFF74A
:100D2000A6FF012000F016F86006040E00F024F87B
:100D300008B144F001040020FFF799FF701CC6B20F
:100D4000082EE8DB15B1FFF77CFF01E0FFF7C6FFD7
:100D5000204670BD10B504462CB14FF40061054823
:100D6000FFF76BFF04E04FF400610248FFF763FFF9
:100D700010BD0000000C014010B54FF48061024826
:100D8000FFF750FF10BD0000000C014008B52820FF
:100D90008DF803004FF48060ADF8000002208DF85C
:100DA000020069460148FFF7B2FE08BD000C014091
:100DB00010B504462CB14FF480610548FFF73DFFA4
:100DC00004E04FF480610248FFF735FF10BD0000DA
:100DD000000C014008B510208DF803008001ADF82B
:100DE000000002208DF8020069460248FFF78FFEDE
:100DF00008BD0000000C014010B5FFF7EBFF01201B
:100E0000FFF7D6FF0120FFF7A5FF0020FFF72FFF18
:100E10000020FFF7CDFF0020FFF729FF0020FFF79C
:100E200099FF10BD10B5FFF7D5FF0020FFF792FF27
:100E30000020FFF7BDFF0020FFF719FF0120FFF79B
:100E400089FF0020FFF713FF0120FFF7B1FF10BD5E
:100E500010B50024FFF79AFF0120FFF7A9FF00203B
:100E6000FFF705FF0120FFF775FF0020FFF7FFFEEA
:100E700008E0641CFA2C05DDFFF7ACFFFFF7D2FF9A
:100E8000012010BDFFF778FF0028F2D1FFF762FFC5
:100E90000020F6E770B50446FFF79CFF0020FFF73F
:100EA00059FF002518E0E00918B10120FFF780FF85
:100EB00002E00020FFF77CFF6006040E0120FFF730
:100EC00049FF0020FFF7D3FE0020FFF743FF00207B
:100ED000FFF7CDFE681CC5B2082DE4DB70BD000035
:100EE0002DE9F04F93B0044615461E4604F5847173
:100EF00060C14FF002091BE04FF0020A13E009EB5A
:100F0000490004EBC001AAF1010001EBC000D0E9E7
:100F1000001009EB490204EBC20202EBCA02C2E96B
:100F20000010AAF1010ABAF1000FE8DCA9F10109E9
:100F3000B9F1000FE0DAC4E900564FF00009CA46E3
:100F40009BE009F1010000EB400004EBC000D0E998
:100F500004730AF1010000EB40004F4901EBC000AF
:100F60003A46D0E904B15846FFF7CDFACDE9100171
:100F700009F1010000EB400004EBC000D0E902736E
:100F80000AF1010000EB4000434901EBC0003A4682
:100F9000D0E902B15846FFF7B6FACDE90C0109EBEA
:100FA000490004EBC000D0E904730AF1010000EB32
:100FB00040003A4901EBC001D1E904B13A46584634
:100FC000FFF7A1FACDE9060109EB490004EBC000E7
:100FD000D0E902730AF1010000EB40002F4901EB58
:100FE000C0003A46D0E902B15846FFF78CFACDE985
:100FF000020109EB490004EBC0010AF1010000EB1A
:101000004000D1E90073254901EBC001D1E900B1ED
:101010003A465846FFF777FACDE90001DDE90223A9
:10102000FFF7CAF9CDE90401DDE90623FFF7C4F9AA
:10103000CDE908010AEB4A00184901EBC000D0E9EC
:1010400000733A46DDE90801FFF75DFACDE90A01D0
:10105000DDE90C23FFF751FACDE90E01DDE910239C
:10106000FFF74BFA09F1010202EB420204EBC20264
:1010700003C209F101090AF1020AB9F1020FFFF6F0
:1010800060AFD4E90C0104F5887203C204F58874DA
:1010900003CC13B0BDE8F08F88460008F84500087F
:1010A00030B5024600200EE0002109E0002400EBEC
:1010B000400502EBC50505EBC1052C606C60491CC1
:1010C0000329F3DB401C0228EEDB30BD70B504467B
:1010D000204600F06BF9204600F040F8204600F072
:1010E000B5F8204600F0C0FAD4F8C017D4F8C40709
:1010F000FFF7ECF805461649FFF746FB08D84FF016
:101100007E51D4F8C807FFF7E1F8C4F8C80712E029
:10111000D4F8C017D4F8C407FFF7D8F805460D492E
:10112000FFF728FB07D84FF07E51D4F8C807FFF728
:101130007BF8C4F8C8070849D4F8C807FFF7CCF80B
:101140000546D4F8C417FFF76FF8C4F8BC0770BDA4
:101150000000A5430000A5C30000B44310B5044639
:10116000204600F007F8204600F03EF8204600F048
:1011700053F810BD10B592B004460FAB0122032105
:1011800006A802F09DFF0CAB0122032103A802F088
:1011900097FF09AB01220321684602F091FFD4F8C2
:1011A0006C0708990860D4F8700708994860D4F86B
:1011B00074070899886003AA06A904F1B40002F034
:1011C0009FFF6A4606A903A802F03AFF029800684A
:1011D000C4F86C0702984068C4F8700702988068E9
:1011E000C4F8740712B010BD10B504462168D4F8D5
:1011F0006007FFF76BF8C4F860076168D4F864070C
:10120000FFF764F8C4F86407A168D4F86807FFF72B
:101210005DF8C4F8680710BD70472DE9F0478146B6
:101220000C462046FFF75EFA05460E464846FFF795
:1012300059FA21F0004107462A463346FFF766FA7D
:1012400002D20020BDE8F0874846FBE710B504460F
:10125000204600F007F8204600F039F8204600F05C
:1012600080F810BD2DE9F0410446D4F86C07FFF773
:1012700039FA07463A460B4604F58360FFF730FE1D
:101280000546FFF75BFAC4F86C07D4F87007FFF760
:1012900029FA07463A460B4604F5A660FFF720FEFA
:1012A0000546FFF74BFAC4F87007D4F87407FFF748
:1012B00019FA07463A460B4604F5C960FFF710FED7
:1012C0000546FFF73BFAC4F87407BDE8F0812DE945
:1012D000F0410446D4F86007FFF704FA07463A469F
:1012E0000B4604F1D000FFF7FBFD0546FFF726FA99
:1012F000C4F86007D4F86407FFF7F4F907463A46E4
:101300000B4604F5F470FFF7EBFD0546FFF716FA00
:10131000C4F86407D4F86807FFF7E4F907463A46CB
:101320000B4604F54070FFF7DBFD0546FFF706FAB4
:10133000C4F86807A169D4F86007FFF76EFFC4F826
:101340006007E169D4F86407FFF767FFC4F8640732
:10135000216AD4F86807FFF760FFC4F86807BDE8A2
:10136000F081704730B50346054C42B9002004E0D7
:10137000256843F82050241D401C8842F8DB30BD0E
:10138000000007082DE9F04104460D4616461F46A9
:101390002046FFF79BFED4F8B4072860D4F8B807BE
:1013A0003060D4F8BC073860BDE8F08110B5044661
:1013B00004F5ED62111F081F01F01CF904F27472AC
:1013C000111F081F01F0E6F804F5EC6412492068CB
:1013D000FEF782FF206010496068FEF77DFF6060C5
:1013E0000D49A068FEF778FFA0600C49E068FEF7A1
:1013F00073FFE06009492069FEF76EFF206107492D
:101400006069FEF769FF60610020A061E061206211
:10141000A4F5EC6410BD000035FA8E3C0AE81C41CE
:1014200010B507490888FFF758F904460021044819
:10143000243801F0E9FB03492046FEF77FFF10BD89
:101440002414004000007A4410B5044600211248DC
:1014500004F5F164C4E90010A160E16021616161FB
:10146000A161E16100202064A063A4F5F16400F0B3
:10147000DDF800F0D9F8204600F074F8204600F0BE
:101480002BF8204600F0B4F8204600F0B2F82046D1
:1014900000F004F810BD00000000F03F70B50546F4
:1014A000002409E02846FFF781FF284600F0DCF819
:1014B000032002F00FFD641C0A2CF3DB002406E07D
:1014C0002846FFF703FE012002F004FD641CB4F57A
:1014D0007A7FF5DB70BD000070B58CB00546302218
:1014E0001F496846FEF78EFE00220C216846FFF772
:1014F00039FF002414E000260FE004EB44006946A5
:1015000001EB800050F8261004EB440205F1840042
:1015100000EB820040F82610761C032EEDDB641CE5
:10152000032CE8DB002407E009A850F8241005F19B
:10153000A80040F82410641C032CF5DB05F184039B
:101540000322114605F1B40002F0BAFD05F1A8032B
:101550000322114605F1C00002F0B2FD0CB070BDCF
:10156000AC45000870B50446002020606060A060B3
:101570001E48A061E0612062002518E02046FFF7C8
:1015800015FFD4F860172068FEF74EFE2060D4F8EF
:1015900064176068FEF748FE6060D4F86817A068BA
:1015A000FEF742FEA060032002F094FC6D1CC82DE3
:1015B000E4DB2846FFF788F8064631462068FEF748
:1015C000BDFE20602846FFF77FF80646314660687A
:1015D000FEF7B4FE60602846FFF776F8064631460F
:1015E000A068FEF7ABFEA06070BD00006F12033B69
:1015F000704710B5044604F1D000FFF751FD04F523
:10160000F470FFF74DFD04F54070FFF749FD04F558
:101610008360FFF745FD04F5A660FFF741FD04F583
:10162000C960FFF73DFD10BD704700000EB50121F8
:10163000202001F07DF90020ADF802004CF24F307F
:10164000ADF804004720ADF800006946054801F0F8
:10165000DDFA0121034801F0CBFA0021014801F035
:10166000D3FA0EBD0014004001B5B4B0349901F5B1
:10167000F16103C9CDE91001349901F5F16103C9A4
:10168000CDE90E01DDE91023FEF73DFFCDE91201A2
:10169000FFF754F81D90349901F5F26103C9CDE9C3
:1016A0001001349800F5F16006C80846CDE90E0235
:1016B0000FA90EC9FEF727FFCDE91201FFF73EF88B
:1016C0001C90349901F5F36103C9CDE910013499F7
:1016D00001F5F16103C9CDE90E01DDE91023FEF743
:1016E00012FFCDE91201FFF729F81B90349901F59B
:1016F000F46103C9CDE91001349901F5F16103C921
:10170000CDE90E01DDE91023FEF7FDFECDE9120162
:10171000FFF714F81A90349901F5F26103C9CDE985
:101720001001349901F5F26103C9CDE90E01DDE93B
:101730001023FEF7E8FECDE91201FEF7FFFF199036
:10174000349901F5F36103C9CDE91001349901F52C
:10175000F26103C9CDE90E01DDE91023FEF7D3FEE6
:10176000CDE91201FEF7EAFF1890349901F5F46112
:1017700003C9CDE91001349800F5F26006C80846A7
:10178000CDE90E020FA90EC9FEF7BDFECDE912018B
:10179000FEF7D4FF1790349800F5F36006C80846AA
:1017A000CDE91002349901F5F36103C9CDE90E01C9
:1017B000DDE91023FEF7A7FECDE91201FEF7BEFF1B
:1017C0001690349800F5F46006C80846CDE910027A
:1017D000349800F5F36006C80846CDE90E020FA95B
:1017E0000EC9FEF790FECDE91201FEF7A7FF159096
:1017F000349800F5F46006C80846CDE91002349923
:1018000001F5F46103C9CDE90E01DDE91023FEF70E
:101810007AFECDE91201FEF791FF1490FFF700FE6A
:10182000FE491290FEF78AFD1390FEF75BFFCDE9AB
:101830001E013498D0F8740710903498D0F87407CB
:101840000F901099FEF748FD12903498D0F8700769
:101850000E903498D0F870070D900E99FEF73CFD6D
:1018600010903498D0F86C070E903498D0F86C072C
:101870000D900E99FEF730FD0F901099FEF7D4FCF5
:1018800011901299FEF7D0FC139002F04FFB3290AA
:101890003498D0F86C0713903299FEF71DFD01467D
:1018A0003498C0F86C173498D0F8700713903299B8
:1018B000FEF712FD01463498C0F870173498D0F83E
:1018C000740713903299FEF707FD01463498C0F86B
:1018D000741700213498C0F878173498C0F87C1732
:1018E0003498C0F880171B991798FEF79DFC11904B
:1018F0003498D0F8800701460F904FF08040FEF7F3
:10190000EBFC10901199FEF7E7FC13901A991898C8
:10191000FEF7DCFC0F903498D0F87C0701460D9060
:101920004FF08040FEF7D8FC0E900F99FEF7D4FCE4
:1019300011904FF07C501699FEF7C8FC0D90149949
:10194000FEF7C4FC0F903498D0F8780701460D904C
:101950004FF08040FEF7C0FC0E900F99FEF7BCFCE4
:1019600010901199FEF760FC12901399FEF75CFC41
:1019700031901C991598FEF7A9FC11903498D0F875
:10198000800701460F904FF08040FEF7A5FC1090B5
:101990001199FEF7A1FC13904FF07C501999FEF7B6
:1019A00095FC0D901499FEF791FC0F903498D0F8A7
:1019B0007C0701460D904FF08040FEF78DFC0E90A5
:1019C0000F99FEF789FC11901A991898FEF72CFCD4
:1019D0000F903498D0F8780701460D904FF0804072
:1019E000FEF77AFC0E900F99FEF776FC1090119995
:1019F000FEF71AFC12901399FEF716FC30904FF088
:101A00007C501999FEF762FC0F901699FEF75EFC68
:101A100011903498D0F8800701460F904FF0804025
:101A2000FEF75AFC10901199FEF756FC13901C9982
:101A30001598FEF7F9FB0F903498D0F87C07014613
:101A40000D904FF08040FEF747FC0E900F99FEF787
:101A500043FC11901B991798FEF738FC0F903498AF
:101A6000D0F8780701460D904FF08040FEF734FC27
:101A70000E900F99FEF730FC10901199FEF7D4FBF1
:101A800012901399FEF7D0FB2F9030990846FEF77D
:101A900023FC0E9031990846FEF71EFC0D900E991E
:101AA000FEF7C2FB0F90FEF71DFECDE9100102F01C
:101AB00095FBCDE91201FEF741FE2E902F982D9057
:101AC0001B991798FEF702FC4FF080411390FEF728
:101AD00003FC2C9015991C98FEF7A6FB4FF0804153
:101AE0001390FEF7F9FB2B9019991D98FEF7EEFB6A
:101AF00012901699FEF7EAFB13901499FEF794FBE7
:101B00002A901B991798FEF7E1FB11904FF0804047
:101B10002D99FEF7E1FB10901199FEF7DDFB139074
:101B20004FF07C501699FEF7D1FB0F901499FEF7F9
:101B3000CDFB11904FF080402E99FEF7CDFB109019
:101B40001199FEF7C9FB12901399FEF76DFB2990CE
:101B500015991C98FEF768FB11904FF080402D9965
:101B6000FEF7BAFB10901199FEF7B6FB13901A9985
:101B70001898FEF7ABFB11904FF080402E99FEF7BE
:101B8000ABFB10901199FEF7A7FB12901399FEF78B
:101B90004BFB28904FF07C501999FEF797FB0F9064
:101BA0001699FEF793FB11904FF080402D99FEF7A8
:101BB00093FB10901199FEF78FFB139017991B98C8
:101BC000FEF732FB11904FF080402E99FEF784FB18
:101BD00010901199FEF780FB12901399FEF724FBE9
:101BE00027903498D0F880070F902899FEF774FB5F
:101BF00011903498D0F87C070F902799FEF76CFB72
:101C000010901199FEF762FB13903498D0F8740786
:101C10000F902B99FEF760FB119001E00000FA4451
:101C20003498D0F870070F902A99FEF755FB109062
:101C30001199FEF74BFB12901399FEF7F5FA2690D7
:101C40003498D0F878070F902799FEF745FB11904C
:101C50003498D0F880070F902999FEF73DFB10903B
:101C60001199FEF733FB13903498D0F86C070F905E
:101C70002A99FEF731FB11903498D0F874070F9031
:101C80002C99FEF729FB10901199FEF71FFB12907B
:101C90001399FEF7C9FA25903498D0F87C070F9075
:101CA0002999FEF719FB11903498D0F878070F9016
:101CB0002899FEF711FB10901199FEF707FB13907E
:101CC0003498D0F870070F902C99FEF705FB11900F
:101CD0003498D0F86C070F902B99FEF7FDFA10900E
:101CE0001199FEF7F3FA12901399FEF79DFA2490DA
:101CF00000212698FEF73EFD7ED000212598FEF7B4
:101D000039FDF9D000212498FEF734FDF4D00021EC
:101D10002698FEF7E1FA0B90FEF7E4FCCDE90C0102
:101D2000DDE91E23FEF7EFFBCDE910013498D0F872
:101D3000A8070D90FEF7D6FCCDE90E01DDE91023D2
:101D4000FEF73AFBCDE91201FEF7F8FC01463498A4
:101D5000C0F8A81700212598FEF7BEFA0B90FEF7F1
:101D6000C1FCCDE90C01DDE91E23FEF7CCFBCDE97A
:101D700010013498D0F8AC070D90FEF7B3FCCDE914
:101D80000E01DDE91023FEF717FBCDE91201FEF786
:101D9000D5FC01463498C0F8AC1700212498FEF712
:101DA0009BFA0B90FEF79EFCCDE90C01DDE91E23AA
:101DB000FEF7A9FBCDE910013498D0F8B0070D90DB
:101DC000FEF790FCCDE90E01DDE91023FEF7F4FAF1
:101DD000CDE91201FEF7B2FC01463498C0F8B01705
:101DE0004FF080402699FEF777FA12903498D0F899
:101DF00060070146119000E045E01298FEF714FAE2
:101E000013903498D0F8A807014612901398FEF763
:101E10000BFA01463498C0F860174FF080402599BE
:101E2000FEF75AFA12903498D0F8640701461190E0
:101E30001298FEF7F9F913903498D0F8AC070146E0
:101E400012901398FEF7F0F901463498C0F8641721
:101E50004FF080402499FEF73FFA12903498D0F862
:101E60006807014611901298FEF7DEF91390349836
:101E7000D0F8B007014612901398FEF7D5F9014645
:101E80003498C0F868173498D0F868070790FEF7C0
:101E900029FCCDE90801349901F5F46103C9CDE9C4
:101EA0000601DDE90823FEF72EFBCDE90C0134988D
:101EB000D0F864070390FEF715FCCDE904013499CE
:101EC00001F5F36103C9CDE90201DDE90423FEF761
:101ED0001AFBCDE908013498D0F860070190FEF7AD
:101EE00001FCCDE90401349901F5F26103C981F0E7
:101EF0000041CDE90201DDE90423FEF704FBCDE951
:101F00000601DDE90823FEF7F8FACDE90A01DDE96B
:101F10000C23FEF7F2FACDE90E01DDE91E23FEF7F0
:101F2000F2FACDE91001349901F5F16103C9CDE967
:101F30000E01DDE91023FEF73FFACDE91201FEF7AD
:101F4000FDFB23903498D0F864070790FEF7CAFB96
:101F5000CDE90801349901F5F46103C9CDE9060121
:101F6000DDE90823FEF7CFFACDE90C013498D0F86B
:101F700068070390FEF7B6FBCDE90401349901F53B
:101F8000F36103C9CDE90201DDE90423FEF7BBFAE1
:101F9000CDE908013498D0F860070390FEF7A2FB62
:101FA000CDE90401349901F5F16103C9CDE90201DC
:101FB000DDE90423FEF7A7FACDE90601DDE90823F0
:101FC000FEF7FAF9CDE90A01DDE90C23FEF795FAEF
:101FD000CDE90E01DDE91E23FEF795FACDE91001EA
:101FE000349901F5F26103C9CDE90E01DDE9102351
:101FF000FEF7E2F9CDE91201FEF7A0FB229034983A
:10200000D0F860070790FEF76DFBCDE90801349822
:1020100000F5F46003C8CDE90601DDE90823FEF709
:1020200072FACDE90C013498D0F868070390FEF7F6
:1020300059FBCDE90401349901F5F26103C9CDE9F9
:102040000201DDE90423FEF75EFACDE908013498C8
:10205000D0F864070390FEF745FBCDE904013498FE
:1020600000F5F16003C8CDE90201DDE90423FEF7C4
:102070004AFACDE90601DDE90823FEF73EFACDE98B
:102080000A01DDE90C23FEF797F9CDE90E01DDE940
:102090001E23FEF738FACDE91001349800F5F360FD
:1020A00003C8CDE90E01DDE91023FEF785F9CDE97E
:1020B0001201FEF743FB21903498D0F86007079097
:1020C000FEF710FBCDE90801349800F5F36006C86F
:1020D0000846CDE906020A46DDE907300999FEF710
:1020E00012FACDE90C013498D0F864070390FEF79A
:1020F000F9FACDE90401349800F5F26003C8CDE99E
:102100000201DDE90423FEF7FEF9CDE90801349868
:10211000D0F868070390FEF7E5FACDE9040134989A
:1021200000F5F16003C8CDE90201DDE90423FEF703
:10213000EAF9CDE90601DDE90823FEF73DF9CDE92D
:102140000A01DDE90C23FEF7D8F9CDE90E01DDE93E
:102150001E23FEF7D8F9CDE91001349800F5F4609C
:1021600003C8CDE90E01DDE91023FEF725F9CDE91D
:102170001201FEF7E3FA209020990846FEF7ACF82A
:10218000129021990846FEF7A7F810902299084668
:10219000FEF7A2F80E9023990846FEF79DF80D90E1
:1021A0000E99FEF741F80F901099FEF73DF8119047
:1021B0001299FEF739F8139001F0B8FE3290329977
:1021C0002398FEF789F81390FEF78CFA349A02F5FB
:1021D000F16203C232992298FEF77EF81390FEF75F
:1021E00081FA349A02F5F26203C232992198FEF71D
:1021F00073F81390FEF776FA349A02F5F36203C28D
:1022000032992098FEF768F81390FEF76BFA349A2B
:1022100002F5F46203C23498D0F8C417C0F8C017AE
:10222000349800F5F46003C802460B46CDE902017C
:1022300000204FF08041FEF766F9CDE904013499A2
:1022400001F5F46103C9CDE90201DDE90423FEF7DC
:102250005AF9CDE90801349901F5F36103C9024641
:102260000B46CDE9020100204FF04041FEF74BF94B
:10227000CDE90401349901F5F36103C9CDE9020107
:10228000DDE90423FEF73FF9CDE90601DDE9082386
:10229000FEF733F90022A44BCDE90A01FEF78CF8D2
:1022A000CDE90E01349800F5F16003C802460B46F3
:1022B000CDE9040100204FF08041FEF724F9CDE97B
:1022C0000601349800F5F46003C8CDE90401DDE9A6
:1022D0000623FEF718F9CDE90A01349800F5F260FB
:1022E00003C802460B46CDE9040100204FF08041AF
:1022F000FEF709F9CDE90601349800F5F36006C848
:102300000846CDE904020A46DDE905300799FEF7E3
:10231000FAF8CDE90801DDE90A23FEF74DF8CDE929
:102320000C01DDE90E2301F007FD81F000410022E0
:102330007E4BCDE91001FEF7E6F8CDE91201FEF77C
:10234000FDF901463498C0F8C417349901F5F161DC
:1023500003C902460B46CDE9060100204FF080413B
:10236000FEF7D1F8CDE90801349901F5F36103C90D
:10237000CDE90601DDE90823FEF7C5F8CDE90C013A
:10238000349800F5F26006C80846CDE906020A4610
:1023900000204FF04041079BFEF7B5F8CDE908015A
:1023A000349901F5F46103C9CDE90601DDE908239B
:1023B000FEF7A9F8CDE90A01DDE90C23FDF7FCFFE2
:1023C000CDE90E0101F070FA81F000410022574B77
:1023D000CDE91001FEF797F8CDE91201FEF7AEF94D
:1023E00001463498C0F8B417349800F5F36003C878
:1023F00002460B46CDE9020100204FF08041FEF776
:1024000082F8CDE90401349800F5F36006C8084667
:10241000CDE902020A46DDE903300599FEF773F8BB
:10242000CDE90801349800F5F26003C802460B4676
:10243000CDE9020100204FF04041FEF764F8CDE9FC
:102440000401349800F5F26006C80846CDE902029E
:102450000A46DDE903300599FEF755F8CDE9060196
:10246000DDE90823FEF749F800222F4BCDE90A01E8
:10247000FDF7A2FFCDE90E01349800F5F16006C822
:102480000846CDE904020A4600204FF08041059B32
:10249000FEF739F8CDE90601349800F5F26006C878
:1024A0000846CDE904020A46DDE905300799FEF742
:1024B0002AF8CDE90A01349800F5F36006C8084609
:1024C000CDE904020A4600204FF08041059BFEF74B
:1024D0001AF8CDE90601349800F5F46006C80846FC
:1024E000CDE904020A46DDE905300799FEF70BF84D
:1024F000CDE90801DDE90A23FDF75EFFCDE90C0116
:10250000DDE90E2301F018FC0022084BCDE9100193
:10251000FDF7F9FFCDE91201FEF710F901463498F5
:10252000C0F8B81735B000BD0000F03FDCA54C4046
:1025300010B54FF4E13001F077FE09A000F0CCFCBB
:102540000BA000F0C9FC00F0F3F80E48FEF77CFF8A
:102550000DA000F0C1FC4FF4FA7001F0BBFC10BDFF
:102560000D0A494D5520746573740D0A0000000072
:10257000496E697469616C697A696E672E2E2E0DD9
:102580000A000000680000205374617274A1EA6FB1
:102590000D0A00002DE9FE4304460D4616460027AD
:1025A0006A4601A902A800F06FF8074617B138463D
:1025B000BDE8FE83BDF90800FEF786F880464FF0BF
:1025C0008D41FDF7BBFE2060BDF90400FEF77CF8ED
:1025D00080464FF08D41FDF7B1FE2860BDF9000047
:1025E000FEF772F880464FF08D41FDF7A7FE306090
:1025F0003846DDE72DE9FF5F04460D4616464FF0ED
:10260000000901AA02A903A800F068F88146B9F1FF
:10261000000F03D0484604B0BDE8F09FBDF90C00A0
:10262000FEF752F80090FEF75DF80746144A154B86
:10263000FDF7DBFF8246FEF781F82060BDF9080058
:10264000FEF742F80090FEF74DF882460C4A0D4B1B
:10265000FDF7CBFF0746FEF771F82860BDF90400CF
:10266000FEF732F80090FEF73DF80746044A054BA6
:10267000FDF7BBFF8246FEF761F830604846CAE7C7
:10268000FCA9F1D24D6230402DE9FC4104460D46D3
:10269000164600276A4606213B2000F09FF80746B1
:1026A00017B13846BDE8FC819DF801009DF8001087
:1026B00040EA012000B220809DF803009DF802103E
:1026C00040EA012000B228809DF805009DF8041022
:1026D00040EA012000B230803846E3E72DE9FC41B2
:1026E00004460D46164600276A460621432000F0A0
:1026F00075F8074617B13846BDE8FC819DF8010022
:102700009DF8001040EA012000B220809DF80300EF
:102710009DF8021040EA012000B228809DF80500D3
:102720009DF8041040EA012000B230803846E3E70B
:1027300010B5FEF7A3FA80216B2000F09CF864200E
:1027400001F0C8FB00216B2000F095F8032000F099
:102750007CF8002000F071F8002000F085F80020DF
:1027600000F07BF80021382000F085F800216A2075
:1027700000F081F80021232000F07DF8802137202F
:1027800000F079F8642001F0A5FB01216B2000F036
:1027900072F800216C2000F06EF8752000F001F84E
:1027A00010BD70B50446FEF727FBD020FEF772FB84
:1027B000FEF74EFB2046FEF76DFBFEF749FBFEF7EA
:1027C0001BFBD120FEF766FBFEF742FB0020FEF765
:1027D0009BFA0546FEF726FB284670BD70B50646F7
:1027E0000D461446FEF708FBD020FEF753FBFEF71C
:1027F0002FFB08B1012070BD3046FEF74BFBFEF702
:1028000027FBFEF7F9FAD120FEF744FBFEF720FB89
:102810000AE025B10120FEF777FA207003E00020DE
:10282000FEF772FA2070641C281EA5F10101CDB2DA
:10283000EFD1FEF7F7FA0020DDE710B50446E00619
:10284000010E1C2000F017F810BD10B50446E0067C
:10285000010E1B2000F00FF810BD10B504462146F4
:102860001A2000F008F810BD10B5044621461920C2
:1028700000F001F810BD70B505460C46FEF7BCFA35
:10288000D020FEF707FBFEF7E3FA08B1012070BD88
:102890002846FEF7FFFAFEF7DBFA08B10120F6E75B
:1028A0002046FEF7F7FAFEF7D3FA08B10120EEE76B
:1028B000FEF7B8FA0020EAE700BFFEE77047000025
:1028C00070B5002100230F22C47804B3154C24688E
:1028D00004F4E064C4F5E064210AC1F10403CA40D1
:1028E000447804FA03F184781440214309010E4C22
:1028F0000678A155047804F01F050124AC40057842
:102900006D11AD0005F1E025C5F8004109E004783E
:1029100004F01F050124AC40044D0678761145F8FB
:10292000264070BD0CED00E000E400E080E100E036
:1029300029B1064AD2690243044BDA6104E0034A32
:10294000D2698243014BDA617047000000100240F7
:1029500029B1064A92690243044B9A6104E0034A92
:1029600092698243014B9A61704700000010024057
:1029700030B500210022002400232D4D6D6805F0A4
:102980000C0121B1042905D0082923D105E0294DE6
:10299000056022E0274D05601FE0254D6D6805F4B8
:1029A0007012234D6D6805F48034022505EB9242C8
:1029B0001CB9214D554305600BE01D4D6D6805F4B4
:1029C00000351DB11C4D5543056002E0194D5543BE
:1029D000056002E0174D056000BF00BF144D6D6833
:1029E00005F0F0010909154D6B5C0568DD40456097
:1029F0000F4D6D6805F4E061090A104D6B5C456888
:102A0000DD4085600A4D6D6805F46051C90A0B4DC3
:102A10006B5C4568DD40C560054D6D6805F440415F
:102A2000890B074D6B5CC568B5FBF3F5056130BDDF
:102A30000010024000127A0000093D001200002040
:102A40002200002010B500F001F810BD0CB50020E8
:102A5000019000903348006840F4803031490860AC
:102A600000BF3048006800F4003000900198401C1E
:102A70000190009818B90198B0F5A06FF1D12948DC
:102A8000006800F4003010B10120009001E0002047
:102A900000900098012843D12348006840F01000BE
:102AA000214908600846006820F0030008600846D5
:102AB000006840F0020008601A4840681949486000
:102AC0000846406848600846406840F480604860B6
:102AD0000846406820F47C1048600846406840F48E
:102AE000E81048600846006840F08070086000BF49
:102AF0000C48006800F000700028F9D009484068D0
:102B000020F00300074948600846406840F0020092
:102B1000486000BF0348406800F00C000828F9D165
:102B20000CBD0000001002400020024030B50146FC
:102B3000B1F1807F01D3012030BD21F07F40401EE4
:102B40004FF0E022506150170F22002807DA1307D8
:102B50001D0E094B00F00F04241F1D5503E0130741
:102B60001C0E064B1C5400BF00204FF0E022906169
:102B7000072010610020DFE718ED00E000E400E02E
:102B800010B501F02FFC012801D001F011FC10BD9F
:102B900010B51348006840F001001149086008466C
:102BA0004068104908400E494860084600680E49D0
:102BB00008400B4908600846006820F4802008603F
:102BC0000846406820F4FE0048604FF41F0088600B
:102BD000FFF738FF4FF000600449086010BD0000A7
:102BE000001002400000FFF8FFFFF6FE08ED00E0D5
:102BF00021B1028842F00102028004E002884FF60F
:102C0000FE731A4002807047818470470022028858
:102C10001D4B98420ED01D4B98420BD0B0F1804F07
:102C200008D01B4B984205D01A4B984202D01A4B41
:102C3000984204D14FF68F731A404B881A43174BB2
:102C4000984207D0164B984204D04FF6FF431A40E3
:102C5000CB881A4302808B8883850B8803850A4BB7
:102C600098420BD0094B984208D00E4B984205D0A1
:102C70000D4B984202D00D4B984201D10B7A03863E
:102C80000123838270470000002C01400034014082
:102C90000004004000080040000C0040001000400C
:102CA0000014004000400140004401400048014041
:102CB00010B540F225511D4800F04AF810B31B48EA
:102CC00000F002F9C4B21A48008800F40040C8B904
:102CD0001748008800F4804060B10A2C03D000201F
:102CE0001349088020E01248008840F40040104951
:102CF000088019E00D2C06D10D48008840F4804072
:102D00000B49088010E00A480088C0F30D0009490B
:102D10000C5407480088401C054908800846008874
:102D2000C72801DD0020088010BD000000380140E8
:102D3000100000203808002021B1828942F400529E
:102D4000828104E082894DF6FF731A4082817047C8
:102D500070B50246002400230025002040F66A16C4
:102D6000B14200D100BFC1F3421501F01F0301269B
:102D700006FA03F3012D02D19689334006E0022DB5
:102D800002D1168A334001E0968A33400C120126A4
:102D900006FA04F41688344013B10CB1012000E0A7
:102DA000002070BDF0B50346002400260025002059
:102DB00040F66A17B94200D100BF1846C1F3421469
:102DC00001F01F06012707FA06F5012C01D10C308E
:102DD00004E0022C01D1103000E014301AB1076871
:102DE0002F43076002E00768AF430760F0BD0000B3
:102DF0002DE9F04786B005460E460024A24600BFE6
:102E0000A1460027B08900B100BF2F462C8A4CF69E
:102E1000FF700440F08804432C82AC894EF6F31016
:102E20000440B08831890843718908430443AC8168
:102E3000AC8A4FF6FF400440B0890443AC8201A83D
:102E4000FFF796FD1F48874202D1DDF810A001E090
:102E5000DDF80CA0A88900F4004040B10AEBCA00DC
:102E600000EB0A1031684900B0FBF1F807E00AEB0B
:102E7000CA0000EB0A1031688900B0FBF1F8642049
:102E8000B8FBF0F004012009642101FB1089A88936
:102E900000F4004040B1322000EBC900B0FBF1F07B
:102EA00000F00700044308E0322000EB0910642121
:102EB000B0FBF1F000F00F0004432C8106B0BDE838
:102EC000F08700000038014001468888C0F3080000
:102ED000704700BFFEE700000FB4054B10B503A913
:102EE000044A029800F05CF910BC5DF814FB000085
:102EF000113F00080C000020490050EAC12018BF13
:102F000004204A0D18BF40F0010040F2FF72B2EBFE
:102F1000515F08BF40F00200012808BF052070473C
:102F20002DE9F0414F1E00EBC7010446D1E9000135
:102F300015461E4637F006020DD02A463346FDF7E9
:102F4000E2FA7F1E04EBC703D3E90023FDF734FA4E
:102F500037F00602F1D1022F25D0042F13D0062F0F
:102F600018BFBDE8F0812A463346FDF7CCFAD4E914
:102F70000A23FDF721FA2A463346FDF7C4FAD4E9BD
:102F80000823FDF719FA2A463346FDF7BCFAD4E9BF
:102F90000623FDF711FA2A463346FDF7B4FAD4E9C1
:102FA0000423FDF709FA2A463346FDF7ACFAD4E9C3
:102FB0000223FDF701FA2A463346FDF7A4FAD4E9C5
:102FC0000023BDE8F041FDF7F7B90122FDF7E2BCAF
:102FD000FDF7F2B90022134610461146FDF705BB76
:102FE000024A00201107FDF7D5BC000001FDFFFFDC
:102FF00002E008C8121F08C1002AFAD170477047C2
:10300000002001E001C1121F002AFBD1704700001F
:103010000149086070470000640000202DE9FF5F4F
:1030200082B00021DDE90430020DDDF840B0034339
:1030300018D044F61050A2F2FF32424315141198F2
:1030400001281FD0A5EB0B00401C5FEA000A4FF0DF
:1030500000064E4FDFF83891B046504615D5CAF1FC
:10306000000413E0119801244AA3012801D16FEA5A
:103070000B010298119AC0E90031C0E9024206B082
:10308000BDE8F09FCBF10000DFE704460021404A95
:10309000491842EB0450CDE9001012E0E00707D0D8
:1030A00032463B4640464946FDF72DFA8046894662
:1030B00032463B4610461946FDF725FA06460F46AE
:1030C0006410002CEAD1DDE90401DDE90023BAF146
:1030D000000F06DAFDF717FA42464B46FDF713FAE2
:1030E00005E0FDF782FA42464B46FDF77EFA0446BC
:1030F0000E460022284BFDF7CDFC03D84FF0FF30E1
:10310000014607E00022254B20463146FDF754F9E1
:10311000FDF7A8FC102409E0002C0ADB0A2200239A
:10312000FDF752FB039B30321A55641E50EA010230
:10313000F2D1641C039AC4F111031444119A012AB8
:1031400003D0012208430DD10AE0084304D0002037
:103150004FF0110B119072E7A3EB0B056D1E0DE004
:103160005B4504DD4FF0000205F1010504E003DAE0
:103170004FF00002A5F10105002AECD00298119948
:10318000C0E90231C0E9004579E7000000001440C1
:103190000000F03F300000000000F0430000E03F7E
:1031A0002DE9FF4F95B09A46884606460025EEE188
:1031B000252877D100242746F94A0121039400E00D
:1031C000044316F8013F203B01FA03F01042F7D107
:1031D00030782A2811D06FF02F033078A0F1300218
:1031E000092A16D8039A44F0020402EB820203EB88
:1031F00042021044761C0390EFE758F8042B039228
:10320000002A03DA504244F40054039044F00204CC
:10321000761C30782E2816D116F8010F44F00404DD
:103220002A280DD06FF02F023078A0F13003092B3F
:1032300009D807EB870302EB4303C718761CF3E7B3
:1032400058F8047B761C30786C280FD006DC4C28AC
:1032500017D068280DD06A2814D104E0742810D043
:103260007A280FD10DE044F400140AE044F48014ED
:1032700001E044F440147278824202D104F58014D3
:10328000761C761C307866280BD013DC582877D053
:1032900009DC002875D04528F6D04628F4D0472808
:1032A0001AD193E118E0632835D0642879D06528D5
:1032B00012D18BE1702873D008DC6728F1D069281F
:1032C0006FD06E280DD06F2806D1ACE073282CD0BB
:1032D000752874D0782853D05246179990476D1CA2
:1032E00054E1C4F30250022809D003280DD0D8F8C5
:1032F000001004280DD00D6008F1040846E1D8F84C
:103300000010EA17C1E90052F6E7D8F800100D8066
:10331000F2E70D70F0E718F8041B8DF8001000209C
:103320008DF80100EB46012003E058F804BB4FF094
:10333000FF3061074FF0000102D40DE009F10101F7
:103340008946B9420FDA8145F8DB1BF809100029DC
:10335000F4D108E009F1010189468142FADB1BF84A
:1033600009100029F6D103985346A0EB090721461E
:103370003846179A00F080FA284400EB090507E068
:1033800044E008E10DE01BF8010B52461799904705
:10339000B9F10109F7D2534621463846179AF2E0AF
:1033A00039E00A21C4F302524FF0000B0091022AC7
:1033B00006D058F8040BC117032A09D00AE023E00D
:1033C00008F1070020F00702F2E80201904605E04C
:1033D00000B2C117042A01D140B2C117002906DA90
:1033E0000A460021404261EB02012D2202E0220543
:1033F00004D52B228DF80420012203E0E20701D03E
:103400002022F7E7914657E00A2100E010214FF013
:10341000000B00910BE010214FF0000B44F004046E
:103420000827009103E008204FF0000B0090C4F340
:103430000252022A05D058F8040B0021032A08D0B2
:1034400008E008F1070020F00702F2E802019046C8
:1034500003E080B2042A00D1C0B24FF00009220775
:103460002AD53278702A07D0DDF800C08CF0100C15
:103470005CEA0B0C05D00EE040228DF804200122FE
:1034800008E050EA010306D030238DF804308DF8AF
:10349000052002229146009B83F0080353EA0B03A8
:1034A0000AD150EA010201D1620705D530228DF818
:1034B00004204FF001097F1E3278582A04D039A227
:1034C0000C920CAA02920BE03BA2F9E75B46009A31
:1034D000FDF77AF90C9B9B5C029A521E02921370C4
:1034E00050EA0102F2D1029804A9081A00F1200B57
:1034F000600702D524F4803400E001275F4502DD37
:10350000A7EB0B0000E0002000EB0B0100900398FC
:103510004944401A0390E00306D453462146179AC3
:10352000039800F0A9F90544002706E001A85246D7
:10353000C05D179990476D1C7F1C4F45F6DBE0037B
:103540000CD553462146179A039800F095F9054487
:1035500004E030205246179990476D1C0099481E90
:1035600000900029F5DC08E00298029952460078A4
:10357000491C0291179990476D1CBBF10001ABF1FA
:10358000010BF1DC5BE100F065F90544761C307855
:1035900000287FF40DAE19B02846BDE8F08F00007A
:1035A0000928010030313233343536373839616219
:1035B00063646566000000003031323334353637DD
:1035C000383941424344454600000000600700D4BA
:1035D000062708F1070020F00700F0E802238046E4
:1035E00003F0004C5FEA0C0001D097A009E0200531
:1035F00001D596A005E0E00701D095A001E0AFF26B
:103600004C001390307823F0004365280CD006DC82
:10361000452809D046281DD047287FD13BE06628A1
:1036200018D067287AD136E00021112F01DB112054
:1036300000E0781CCDE9000104A90CA8FFF7EEFC1E
:10364000DDE90D010C9A4FF0000B07F10109109212
:1036500000914EE04FF000400097CDE9011004A921
:103660000CA8FFF7DBFCDDE90D020C9B0F994FF076
:10367000000B91461093009211B9791C00EB0109DF
:10368000B7EB090003D4C0F1FF3B07F10109A9EB37
:103690000700019042E0012F00DA01270021112FDD
:1036A00001DD112000E03846CDE9000104A90CA895
:1036B000FFF7B4FCDDE90D010C9A00914FF0000B0F
:1036C000B946109221070FD4009A4A4503DA914671
:1036D00001E0A9F10109B9F1010F05DD109AA9F185
:1036E0000101515C3029F4D0B84202DA10F1040F24
:1036F00003DA0121CDE9011010E0002803DC834446
:10370000A9EB000102E0411C494500DD8946A0EB20
:103710000B00401C01904FF000400290200705D4A0
:103720000198484502DB4FF0FF30019000208DF8F2
:103730004B0002980DF14B07B0F1004F25D002204D
:103740000C902B200D90029800280CDA4042029039
:103750002D200D9007E00A210298FDF71FF8303167
:10376000029007F8011D0C99481E0C900029F2DC0C
:1037700002980028EFD1791E0D980870307800F07B
:10378000200040F0450007F8020D11A8C01BC01D25
:1037900002901398007800B1012000EB0901019814
:1037A00001EBE071029801440398401A401E039017
:1037B000E00306D453462146179A039800F05CF8BC
:1037C00005441398007818B15246179990476D1C1C
:1037D000E00323D553462146179A039800F04CF88E
:1037E00005441BE0BBF1000F07DB0098584504DDE2
:1037F0001098179910F80B0001E0179930205246E5
:10380000904701980BF1010B401E05F10105019055
:1038100004D12E205246179990476D1CB9F1000132
:10382000A9F10109DEDC05E017F8010B52461799F2
:1038300090476D1C0299481E02900029F4DC534603
:103840002146179A03989EE62D0000002B000000E9
:10385000200000002DE9F041044600251E461746D1
:10386000880404D405E039462020B0476D1C641E4E
:10387000F9D52846BDE8F0812DE9F0410446002540
:103880001E469046C80301D5302700E02027880453
:1038900004D505E041463846B0476D1C641EF9D595
:1038A0002846BDE8F08100002DE9F04D8D4F21F054
:1038B000004A86B005460C46BA452ADBAAEB07004B
:1038C00028430AD08848824501DC1AD1CDB106B020
:1038D0002846BDE8F04DFFF778BB844A844B284664
:1038E000FCF711FE07460E46824A834B28462146C6
:1038F000FCF709FE06B03A463346BDE8F04DFCF74A
:103900005BBD0120FFF784FB06B0BDE8F04DFFF77B
:1039100061BB7A48824542DABAF1795F0BDA284610
:10392000FFF7EAFA042808BFFFF75AFB284606B05B
:103930002146BDE8F08D2A460B461046FCF7E3FD14
:10394000834602466E480E460B4606217844FFF732
:10395000E7FA5A463346FCF7D6FD804669488A4660
:103960005A46334604217844FFF7DAFA5A4633467A
:10397000FCF7C9FD00223B46FCF71EFD02460B4644
:1039800040465146FCF731FE2A462346FCF7BBFD74
:1039900006B02A462346BDE8F04DFCF70DBD28468B
:1039A00024F0004100223D463B46FCF7A9FD4FF0C4
:1039B000FF32FCF7EFFF0646024653480F460B4620
:1039C00006217844FFF7ACFA32463B46FCF79BFDF4
:1039D000CDE900014D4832463B4604217844FFF7CB
:1039E0009FFA32463B46FCF78EFD00222B46FCF741
:1039F000E3FC834602913046394600F0EFFB8046F7
:103A000043480D46504517DCDDE900015A46029B4C
:103A1000FCF7EBFD42462B46FCF775FD42462B4674
:103A2000FCF7CAFC0122FCF7B5FF304A304BFCF72B
:103A300064FD304A304B4CE04FF0000A52460B46D2
:103A40004046FCF7B9FCCDE9031052462B46104620
:103A50001946FCF758FD32463B46FCF751FDDDE9BF
:103A60000332FCF7C2FD06460F46DDE900015A4667
:103A7000029BFCF7BAFD834600910122304639468D
:103A8000FCF788FF194A1A4BFCF73AFD06460F4629
:103A9000012240462946FCF77DFF5A46009BFCF771
:103AA00032FD32463B46FCF728FD06460F46012212
:103AB00050462946FCF76EFF0E4DDFF858802A4627
:103AC0004346FCF71DFD32463B46FCF719FD2A46EE
:103AD0004346FCF715FD002CD8BF81F0004106B02D
:103AE000BDE8F08D0000F03F0000F07F075C14336C
:103AF00026A6913C182D4454FB21F93F0000E03FDD
:103B0000B00D0000C60D00003A0D0000500D000081
:103B10003333EF3FFB21E93F2DE9F84F04460D46D3
:103B200021F0004000917349814211DC72498842C2
:103B300001DC06D12CB120462946BDE8F84FFFF73D
:103B400044BA6E48002DCCBF6D496E49BDE8F88F70
:103B50006D49814211DD6D498142D8BF4FF0FF367A
:103B60006DDD20462946FFF7C7F9042808BFFFF797
:103B700037FA20462946BDE8F88F6549654F25F09C
:103B80000045814233DD6449814219DD0026324619
:103B90004FF0804320462946FCF70EFC80468A46BB
:103BA000012220462946FCF7F5FE00223B46FCF7A1
:103BB000A4FC42465346FCF718FD04460D463EE081
:103BC00001260022BA463B4620462946FCF7F4FB74
:103BD00080460F460022534620462946FCF78DFCBE
:103BE00042463B46FCF701FD04460D4627E04B49A3
:103BF00081421BDDDFF828A1022600225346204621
:103C00002946FCF780FC00223B46FCF7D5FB8046AA
:103C10000F460022534620462946FCF76EFC4246DA
:103C20003B46FCF7E2FC04460D4608E0032622462C
:103C30002B4600203B49FCF7D8FC04460D462246A3
:103C40002B4610461946FCF75EFC8B468246024620
:103C50000B46FCF758FC07460246334888460B469D
:103C600006217844FFF75CF952465B46FCF74BFCB3
:103C700082462E488B463A46434605217844FFF754
:103C80004FF93A464346FCF73EFC02460B46002EEF
:103C9000504659460CDAFCF78FFB22462B46FCF7C0
:103CA00032FC01B022462B46BDE8F04FFCF728BCA1
:103CB000FCF782FB22462B46FCF725FC1C4A7A4483
:103CC00002EBC603D3E90023FCF717FC22462B4680
:103CD000FCF713FC174A7A4402EBC603D3E900232E
:103CE000FCF70EFC009A002AB8BF81F00041BDE845
:103CF000F88F0000000010440000F07F182D44549D
:103D0000FB21F93FFB21F9BF0000DC3F0000203E12
:103D10000000F33F0000F03F0000E63F008003405A
:103D20000000F83F0000F0BF520B0000100B000035
:103D3000AE0A0000760A00002DE9F04D9446CCF161
:103D4000000423F000464CEA0404594F46EAD474B8
:103D50009A46884621F00042BC4206D8454240EAD5
:103D6000050442EAD474BC4204D9BDE8F04D624671
:103D7000FFF72EB9AAF14055A5F17F6555EA0C046D
:103D80000BD0022404EAAA744A4DDFF82CE144EA7D
:103D9000D87452EA000B04D00CE0BDE8F04DFFF7F8
:103DA000BBBE002C14BF012CBDE8F08D022C30D01E
:103DB000032C32D056EA0C0B0AD0BE4220D1BA42B4
:103DC00009D126F0804622F080423346114617E0A2
:103DD00000291ADB25E0DFF8E4B0FB44002C04BF27
:103DE000DBE90001BDE8F08D012C02BFDBE9000139
:103DF00081F00041BDE8F08D022C0AD0032C0CD0DC
:103E0000BA4212D1B8F1000F0BDA2A482C49BDE8AA
:103E1000F08D28462B49BDE8F08D28467146BDE857
:103E2000F08D24482849BDE8F08D921B12153C2ADC
:103E3000C4BF204F244E10DCBAF1000FBEBF12F1F8
:103E40003C0F00273E4608DB6246FCF7CEFB21F024
:103E50000041FFF761FE07460E4694B1012C08BFF2
:103E600086F000460DD0194A194B022C38463146CF
:103E700015D0FCF742FB2A46BDE8F04D114BFCF78C
:103E80003CBB0022134638463146FCF73FFC04BFDA
:103E90000220FFF7BDF838463146BDE8F08DFCF74B
:103EA0002CFB2A46BDE8F04D064BFCF729BB000071
:103EB0000000F07F182D4454FB2109C00A0A0000BD
:103EC000FB21F9BFFB210940FB21F93F075C1433BB
:103ED00026A6A13C70B504460C48FEF727FE002537
:103EE00008E000BF4FF0E020006900F480300028B7
:103EF000F8D06D1CA542F4D34FF0E020006920F00B
:103F000001004FF0E021086170BD00004019010080
:103F100000BF054A128802F04002002AF9D0C2B25E
:103F2000014B1B1D1A807047003801402DE9F047F6
:103F300004464FF07C512046FCF7CEF981462546D9
:103F40002E460C48A0EB6606354629464846FCF747
:103F5000C3F982462946FCF7BFF980464FF07F51EE
:103F6000FCF7B7F907462946FCF7B6F90546284697
:103F7000BDE8F087DF59375F1FB5FEF7D9FA45E096
:103F8000234B244A24492548FDF7FCF920480068C2
:103F9000FCF7A8FB04460D461E480068FCF7A2FB90
:103FA00006460F461C480068FCF79CFB80464246CC
:103FB0000B461BA0CDE90067CDE90245FEF78CFF5B
:103FC0000120FFF787FF1548FDF780F81349D1F866
:103FD000BC07FCF787FB04460D461049D1F8B8072B
:103FE000FCF780FB06460F460C49D1F8B407FCF7F6
:103FF00079FB804642460B4609A0CDE90067CDE932
:104000000245FEF769FF0120FFF764FFB8E70000F3
:1040100008000020040000200000002068000020AC
:1040200070697463683A252E3566097261773A259E
:104030002E356609796177252E3566090D0A00004F
:104040002DE9F04104460F4615462068396888423C
:1040500003D160687968884203D06FF00200BDE840
:10406000F08120682968884203D1606869688842C5
:1040700002D06FF00100F2E700261CE04FF00008CC
:1040800015E0D7E9013206FB038352F82310D4E987
:10409000013206FB038352F82300FCF7C5F8D5E98B
:1040A000012106FB028241F8220008F1010868683C
:1040B0004045E6D8761C2868B042DFD80020CEE71D
:1040C000F0B514461D4601B104B9F0BD016044606D
:1040D0008560002210E000230BE002FB013655F85A
:1040E0002660D0F800C002FB0C3C876847F82C60C3
:1040F0005B1C8B42F1D3521CA242ECD300BFE4E71D
:104100002DE9F0470646884614467068D8F8001036
:10411000884203D06FF00200BDE8F0873068216864
:10412000884204D1D8F804006168884202D06FF058
:104130000100F1E7002532E000272CE00020D4E95F
:10414000012105FB027241F8220081461FE0D8E9F7
:10415000013209FB037352F82310D6E9013205FB43
:10416000039352F82300FCF7B7F88246D4E9012004
:1041700005FB027250F822105046FCF755F8D4E9BE
:10418000012105FB027241F8220009F10109706862
:104190004845DCD87F1C6068B842CFD86D1C2068C9
:1041A000A842C9D80020B7E70A490968096809B9CF
:1041B000012100E0002121B14FF0FF31064A1160DA
:1041C00006E004490968C968C868034A4168116083
:1041D000704700002C000020580000202DE9F0411D
:1041E00006460F46FCF7EDFB041E0D4618BF0120E6
:1041F000284320F00040C0F17F6000F1E040C00F94
:104200000ED0301C18BF0120384320F00040C0F110
:104210007F6000F1E040C00F04BF0120FEF7F8FE10
:1042200020462946BDE8F08110B586B0044601213C
:1042300044F20400FEF78CFB4FF40070ADF814005C
:1042400003208DF8160018208DF8170005A91C48CA
:10425000FCF75DFC4FF48060ADF8140004208DF88D
:10426000170005A91648FCF752FC25208DF8000020
:1042700003208DF801008DF8020001208DF8030065
:104280006846FEF71DFB01940020ADF80800ADF86C
:104290000A00ADF80C00ADF810000C20ADF80E00CF
:1042A00001A90848FEF7A4FD012240F22551054866
:1042B000FEF778FD01210348FEF73EFD06B010BD74
:1042C000000801400038014001460A69D1E9013087
:1042D0009860D1E9010358605068884201D188682C
:1042E0005060002008611068401E10601068704720
:1042F00042684A6093688B60936859609160086176
:1043000003685B1C0360704710B51B48006818B158
:1043100001201A4908602DE000201849086018485B
:104320000068B0FA80F0C0F11F0404EB8400154966
:1043300051F8200008B1012000E0002028B940F623
:10434000F62211A115A0FEF7C7FD04EB84010D4A6A
:1043500002EB810041684968416000F10801426850
:104360008A4202D14168496841604168C9680F4A80
:10437000116000BF10BD0000600000204C00002054
:1043800040000020000900202E2E5C467265655218
:10439000544F535C7461736B732E63004572726F7C
:1043A000723A25732C25640D0A00000028000020B5
:1043B00010B500BF502080F31188BFF34F8FBFF3BB
:1043C0006F8F00BF00F01EF818B14FF08050044905
:1043D000086000BF002080F3118800BF10BD0000FE
:1043E00004ED00E00549096809B9012005E0044928
:1043F000096809B9022000E000207047440000204D
:10440000600000202DE9F0414FF0000841480068AD
:10441000002872D140480068451C3F480560EDB94E
:104420003E480068006808B9012000E0002028B973
:1044300040F6D9123AA13FA0FEF74EFD3748076873
:1044400040480068354908603E4807603E480068BB
:10445000401C3D490860FFF7A7FE00BF3B480068CD
:1044600085423CD300BF2D480068006808B9012090
:1044700000E0002020B14FF0FF30344908602DE00B
:1044800026480068C068C4686668B54202D22F48F2
:10449000066023E0201DFFF717FFA06A18B104F1A2
:1044A0001800FFF711FF94F82C10012088402849CC
:1044B0000968084326490860E16A01EB8101254A41
:1044C00002EB8100211DFFF713FF2349E06A096811
:1044D000C96A8842C7D34FF00108C4E700BF1E482D
:1044E0000068C06A00EB80001A4951F820000128DA
:1044F00001D94FF0010805E0FFE718480068401CAB
:10450000164908601648006808B14FF00108404697
:10451000BDE8F081600000203C0000202C0000205D
:104520002E2E5C4672656552544F535C7461736BFA
:10453000732E63004572726F723A25732C25640DD9
:104540000A00000030000020500000205800002029
:104550004000002000090020280000204800002022
:104560004C00002000000000000000000AE81C4190
:1045700000000000000000000AE81CC1000000006C
:104580000AE81C4100000000000000000AE81CC10D
:10459000000000000AE81C410000000000000000CC
:1045A0000AE81CC100000000000000000000803F7D
:1045B0000000000000000000000000000000803F3C
:1045C0000000000000000000000000000000803F2C
:1045D00000000000000000000000000000000000DB
:1045E00001000000030000000100000003000000C3
:1045F0000100000000000000264C974C0E608D3F2B
:1046000000000000000000000000000000000000AA
:10461000000000000000F03F00000000000000402B
:10462000000000000000F03FDC8B009707298A3F64
:10463000000000000000000000000000000000007A
:10464000000000000000F03F0000000000000040FB
:10465000000000000000F03F000000000000F03FFC
:10466000000000000000000000000000000000004A
:104670000100000003000000010000000300000032
:104680000100000000000000000000000000F03FFA
:10469000000000000000000000000000000000001A
:1046A000000000000000F03F36092A711E4DFCBFDB
:1046B000557D1DC73D70EA3F000000000000F03F3F
:1046C00000000000000000000000000000000000EA
:1046D000000000000000F03F3938BFD52E34F9BF8C
:1046E000B57CEE24EE0AE43F000000000000F03F3D
:1046F00000000000000000000000000000000000BA
:10470000555555555555C53F7D6FEB0312D6D4BF52
:104710005544880E55C1C93F3B8F68B52882A4BF58
:1047200088B20175E0EF493F09F7FD0DE13D023F19
:104730004B2D8A1C273A03C0C88A599CE52A0040A1
:1047400059018D1B6C06E6BF82922EB1C5B8B33FEE
:104750004FBB610567ACDD3F182D4454FB21E93F99
:104760009BF681D20B73EF3F182D4454FB21F93F88
:10477000E2652F227F2B7A3C075C143326A6813C0E
:10478000BDCBF07A8807703C075C143326A6913CB9
:10479000C4EB98999999C9BF711623FEC671BCBF25
:1047A0006D9A74AFF2B0B3BF9AFDDE522DDEADBF8D
:1047B0002F6C6A2C44B4A2BF0D5555555555D53FA5
:1047C000FF8300922449C23F6E204CC5CD45B73FC0
:1047D000513DD0A0660DB13FEB0D76244B7BA93F38
:1047E00011DA22E33AAD903F000000000000000023
:1047F000104800080000002068000000F02F0008AA
:104800007848000868000020800F00000030000891
:104810000000000000000000000000000000000098
:104820000000000000000102030401020304060767
:104830000809020406080000000000000000000053
:104840000000000000000000000000000000000068
:104850000000000000000000000000000000000058
:104860000000000000000000000000000000000048
:08487000000000000000000040
:04000005080001E10D
:00000001FF
